S00D000044413556322E73726563D5
S11300000C9434000C94E6020C9451000C945100AE
S11300100C9451000C9451000C9451000C94510018
S11300200C9451000C9451000C9451000C94510008
S11300300C9451000C9451000C9451000C945100F8
S11300400C9451000C9451000C9451000C945100E8
S11300500C9451000C9451000C9451000C945100D8
S11300600C9451000C94510011241FBECFEFD8E022
S1130070DEBFCDBF12E0A0E0B1E0ECEAFFE002C0D9
S113008005900D92A639B107D9F722E0A6E9B2E0AE
S113009001C01D92A53DB207E1F70E94D2030C9462
S11300A0D4070C940000DF92EF92FF920F931F93FA
S11300B0CF93DF937B018A012A980E94B202D82E43
S11300C00115110551F0E7010E0D1F1D88810E94D5
S11300D0B2028993C017D107C9F72A9A8D2DDF91EF
S11300E0CF911F910F91FF90EF90DF900895806260
S11300F00E94530008950E94530008950F931F9384
S1130100CF93DF931F92CDB7DEB7F894E9E6F0E022
S1130110808182608083E89A7894219A229A2A9A2C
S113012029980E94A3022FEF81EE94E02150804091
S11301309040E1F700C000000FE30093B80241E0F3
S113014050E068EB72E080E00E9477001092B80201
S113015041E050E068EB72E081E00E94770080EFBC
S11301608093B80241E050E068EB72E084E00E94C2
S113017077001092B80241E050E068EB72E082E050
S11301800E94770084E78093B80241E050E068EB76
S113019072E085E00E9477008EE08093B80241E02F
S11301A050E068EB72E086E00E94770010E710935D
S11301B0B80241E050E068EB72E087E00E9477000B
S11301C00093B80241E050E068EB72E08CE10E94D9
S11301D0770084E08093B80241E050E068EB72E07D
S11301E08DE10E947700198340E050E060E070E008
S11301F082EE0E94770040E050E060E070E081EE23
S11302000E94770045E050E065E071E08AE00E94DA
S1130210770045E050E060E071E080E10E94770003
S113022041E050E0BE016F5F7F4F82E00E947700A3
S113023089818160898341E050E0BE016F5F7F4F17
S113024082E00E9477000F90DF91CF911F910F9170
S113025008951F93CF93DF931F92CDB7DEB7182F66
S113026041E050E0BE016F5F7F4F80E00E947B0061
S1130270133071F128F4113059F01230E9F05EC0F6
S1130280153009F447C0D0F1163009F445C056C002
S1130290898181FD53C082608093B80241E050E0BF
S11302A068EB72E080E00E9477008FE39FE10197A2
S11302B0F1F700C0000042C089818D7F8093B802AD
S11302C041E050E068EB72E080E00E94770036C0C5
S11302D0898181608093B80241E050E068EB72E06C
S11302E080E00E94770080E78093B80241E050E00C
S11302F068EB72E087E00E94770020C089818E7FDE
S11303008093B80241E050E068EB72E080E00E9424
S1130310770014C0299812C089818E7F8093B80217
S113032041E050E068EB72E080E00E947700299A97
S113033087E592E00197F1F700C000000F90DF918C
S1130340CF911F91089583E00E942901299A87E59E
S113035092E00197F1F700C000000895CF92DF9278
S1130360EF92FF920F931F93CF93DF93CDB7DEB736
S1130370A0970FB6F894DEBF0FBECDBF6C01689492
S1130380FF24F5F8CE010196FC012F2D11922A9538
S1130390E9F7B6010E948F04F60101900020E9F705
S11303A031978F010C191D0984E00E94290140E056
S11303B050E060E070E082EE0E94770040E050E0A0
S11303C060E070E081EE0E947700F092B80241E0B4
S11303D050E068EB72E087E00E94770041E050E073
S11303E068EB72E080E00E947B008091B802806438
S11303F08093B80241E050E068EB72E080E00E9434
S113040077002A9880EB0E94AD02EFEFE00F002303
S113041081F08601EE2EF12CF70131967601EE0E75
S1130420FF1EF80181918F010E94AD020E151F0578
S1130430C1F780E00E94AD022A9A299AF0E5FA9564
S1130440F1F7299841E050E068EB72E087E00E9400
S11304507B008091B80285FD0BC041E050E068EB61
S113046072E087E00E947B008091B80285FFF5CF9F
S1130470CE0101969F938F9386E291E09F938F9391
S11304800E94960441E050E068EB72E080E00E9434
S11304907B008091B8028F7B8093B80241E050E0EA
S11304A068EB72E080E00E9477000E94A3010F9045
S11304B00F900F900F9081E0A0960FB6F894DEBFD6
S11304C00FBECDBFDF91CF911F910F91FF90EF90A1
S11304D0DF90CF90089580E2E6E9F2E0DF011D921B
S11304E08A95E9F741E050E068EB72E080E60E940B
S11304F07B004091B802442341F050E04F5F5F4FCE
S113050066E972E081E60E94530080919602882396
S113051069F080E48093B80241E050E068EB72E057
S113052087E00E94770086E992E0089580E4809352
S1130530B80241E050E068EB72E087E00E94770087
S113054088E391E00895249884B1886284B980E5B1
S11305508CBD8DB581608DBD08958EBD0DB407FE33
S1130560FDCF08958EBD0DB407FEFDCF8EB5089561
S1130570CF93C82F8A3019F48DE00E94B802E0ECC2
S1130580F0E0808185FFFDCFC093C60080E090E05D
S1130590CF910895E0ECF0E080818823ECF780911E
S11305A0C60090E008951092C50087E68093C400C9
S11305B088E18093C100EFECF2E088E191E093835D
S11305C082838AE091E09183808308951F920F9241
S11305D00FB60F9211248F9381E08093B7028F910D
S11305E00F900FBE0F901F901895CF93DF931F921B
S11305F0CDB7DEB78FE391E00E94AC048DE691E0C5
S11306000E94AC0441E050E0BE016F5F7F4F80E088
S11306100E947B0089811F928F9389E991E09F93C7
S11306208F930E94960441E050E0BE016F5F7F4FBC
S113063081E00E947B0089811F928F9389EA91E077
S11306409F938F930E94960441E050E0BE016F5F38
S11306507F4F82E00E947B0089811F928F9389EBF8
S113066091E09F938F930E94960441E050E0BE0175
S11306706F5F7F4F84E00E947B0089811F928F937C
S11306808CEC91E09F938F930E94960441E050E09C
S1130690BE016F5F7F4F85E00E947B0089811F92BE
S11306A08F9380EE91E09F938F930E94960441E094
S11306B050E0BE016F5F7F4F86E00E947B0089811E
S11306C01F928F9380EF91E09F938F930E949604E3
S11306D041E050E0BE016F5F7F4F87E00E947B00E6
S11306E089811F928F9382E092E09F938F930E945F
S11306F0960441E050E0BE016F5F7F4F8DE10E94A0
S11307007B0089811F928F9382E192E09F938F9364
S11307100E9496040FB6F894DEBF0FBECDBF83E2ED
S113072092E00E94AC040F90DF91CF91089584E48D
S113073080937C0085E880937A0008951092CE021D
S11307401092CD0224E0EAE7F0E0A8E7B0E080816F
S113075080648083808186FDFDCF4D915C911197EB
S11307608091CD029091CE02840F951F9093CE027A
S11307708093CD023FEF80E792E03150804090407B
S1130780E1F700C00000215011F78091CD02909153
S1130790CE0296958795969587959093CE028093F1
S11307A0CD020895CF93DF93CDB7DEB7A0970FB6F0
S11307B0F894DEBF0FBECDBF80E1E0E5F2E0DE01DC
S11307C0119601900D928A95E1F70E94D3020E943E
S11307D097030E947E000E94F5020E94A3010F2E3F
S11307E0F4EFAF2EBB24B394F02D0F2ECC24CA9477
S11307F0F3E0DF2EF02D0F2EF0E6EF2EF2E0FF2EC9
S1130800F02D09EB12E00F2EF6E68F2EF2E09F2E6C
S1130810F02D502E612E0F2EF4E17F2EF02D0E942C
S11308209E032091CD023091CE022A9DC0012B9DC2
S1130830900D3A9D900D1124B6010E947B046C5ECC
S11308407F4F7093CE026093CD028091CD02909140
S1130850CE029F938F93FF92EF921F927F921F93EA
S11308600F930E94DC04652D762DCE0101960E9423
S11308708F04CE0101960E94AE012FEF3DE389E47F
S1130880215030408040E1F700C000008091B70261
S11308900FB6F894DEBF0FBECDBF882309F4BFCFD7
S11308A01092B7020E946B029F938F939F928F9234
S11308B00E9496043FEF89E698E1315080409040D1
S11308C0E1F700C00000CE0101960E94AE0191E064
S11308D00F900F900F900F90811101C090E09093B2
S11308E0B6028091B602882309F499CF8CE792E08E
S11308F00E94AC0490CFAA1BBB1B51E107C0AA1FE6
S1130900BB1FA617B70710F0A61BB70B881F991FAC
S11309105A95A9F780959095BC01CD010895FB01E6
S1130920DC0101900D920020E1F70895A0E0B0E011
S1130930ECE9F4E00C94AD07AE014B5F5F4FFA01B4
S113094061917191AF018091D1029091D2020E9484
S11309500C05E2E00C94C9070F931F93CF93DF9328
S1130960E091D102F091D202238121FF1BC08C01BE
S1130970D0E0C0E0F80181918F016091D1027091C3
S1130980D202DB011896ED91FC911997882331F07E
S11309900995892B79F3DFEFCFEFECCF8AE0099546
S11309A0892B19F08FEF9FEF02C08D2F9C2FDF91C1
S11309B0CF911F910F910895AEE0B0E0E2EEF4E024
S11309C00C94AB070D891E898F89988D26E02C83A2
S11309D01A83098397FF02C080E090E801979E8301
S11309E08D83AE01455E5F4F698D7A8DCE01019690
S11309F00E940C054D815E8157FD0AC02F81388508
S1130A00421753070CF49A01F801E20FF31F108206
S1130A102E96E4E00C94C707ABE0B0E0E2E1F5E029
S1130A200C949D076C017B018A01FC0117821682DC
S1130A30838181FFCCC1CE0101963C01F6019381F3
S1130A40F70193FD859193FF81917F01882309F438
S1130A50BAC1853239F493FD859193FF81917F0169
S1130A60853229F4B60190E00E940307E7CF912C68
S1130A70212C312CFFE1F315D8F08B3279F038F4C6
S1130A80803279F08332A1F4232D20611DC08D3290
S1130A9061F0803369F4232D216016C0832D8260B8
S1130AA0382EE32DE4603E2E2AC0F32DF8601DC0DD
S1130AB037FC2DC020ED280F2A3040F08E32B9F4D7
S1130AC036FC81C1232D2064322E19C036FE06C0A7
S1130AD08AE0989E200D1124922E11C0EAE02E9EE9
S1130AE0200D1124222EF32DF0623F2E08C08C36E7
S1130AF021F4832D8068382E02C0883641F4F70132
S1130B0093FD859193FF81917F018111B3CF982F3C
S1130B109F7D9554933028F40C5F1F4F9FE3998376
S1130B200DC0833631F0833771F0833509F059C035
S1130B3021C0F801808189830E5F1F4F882483942C
S1130B40912C530113C02801F2E04F0E511CF801FF
S1130B50A080B18036FE03C0692D70E002C06FEF43
S1130B607FEFC5010E94F8064C018201F32DFF7747
S1130B703F2E16C0280122E0420E511CF801A0802D
S1130B80B18036FE03C0692D70E002C06FEF7FEFC5
S1130B90C5010E94ED064C01F32DF0683F2E820141
S1130BA033FC1BC0822D90E088169906B0F4B60180
S1130BB080E290E00E9403072A94F4CFF50137FC09
S1130BC0859137FE81915F01B60190E00E94030791
S1130BD021102A9421E0821A91088114910471F75A
S1130BE0E8C0843611F0893641F5F80137FE07C0B4
S1130BF060817181828193810C5F1F4F08C0608185
S1130C007181072E000C880B990B0E5F1F4FF32D7B
S1130C10FF763F2E97FF09C090958095709561955A
S1130C207F4F8F4F9F4FF0683F2E2AE030E0A301A3
S1130C300E943F07882E861845C0853731F4232D3E
S1130C402F7EB22E2AE030E025C0932D997FB92E55
S1130C508F36C1F018F4883579F0B5C0803719F0B3
S1130C60883721F0B0C0E92FE061BE2EB4FE0DC07C
S1130C70FB2DF460BF2E09C034FE0AC0292F266064
S1130C80B22E06C028E030E005C020E130E002C00A
S1130C9020E132E0F801B7FE07C0608171818281F2
S1130CA093810C5F1F4F06C06081718180E090E0EA
S1130CB00E5F1F4FA3010E943F07882E8618FB2D4D
S1130CC0FF773F2E36FE0DC0232D2E7FA22E8914D2
S1130CD058F434FE0BC032FC09C0832D8E7EA82E3E
S1130CE005C0B82CA32C03C0B82C01C0B92CA4FE99
S1130CF00FC0FE01E80DF11D8081803321F49A2D8F
S1130D00997EA92E09C0A2FE06C0B394B39404C070
S1130D108A2D867809F0B394A3FC11C0A0FE06C006
S1130D20B21488F4280C922C9B180EC0B21460F4F0
S1130D30B60180E290E00E940307B394F7CFB214A7
S1130D4018F42B1802C0982C212CA4FE10C0B60154
S1130D5080E390E00E940307A2FE17C0A1FC03C039
S1130D6088E790E002C088E590E0B6010CC08A2DC7
S1130D70867859F0A1FE02C08BE201C080E2A7FC94
S1130D808DE2B60190E00E940307891438F4B6019D
S1130D9080E390E00E9403079A94F7CF8A94F301CA
S1130DA0E80DF11D8081B60190E00E9403078110D7
S1130DB0F5CF222009F442CEB60180E290E00E94F1
S1130DC003072A94F6CFF6018681978102C08FEF3C
S1130DD09FEF2B96E2E10C94B907FC01059061505A
S1130DE070400110D8F7809590958E0F9F1F08953D
S1130DF0FC016150704001900110D8F780959095E6
S1130E008E0F9F1F08950F931F93CF93DF93FB01C2
S1130E10238121FD03C08FEF9FEF2CC022FF16C05A
S1130E2046815781248135814217530744F4A081B8
S1130E30B1819D012F5F3F4F318320838C932681A5
S1130E4037812F5F3F4F3783268314C08B01EC011A
S1130E50FB010084F185E02D0995892BE1F6D80189
S1130E6016968D919C911797019617969C938E9345
S1130E701697CE01DF91CF911F910F910895FA013A
S1130E80AA27283051F1203181F1E8946F936E7FC5
S1130E906E5F7F4F8F4F9F4FAF4FB1E03ED0B4E0B6
S1130EA03CD0670F781F891F9A1FA11D680F791FF7
S1130EB08A1F911DA11D6A0F711D811D911DA11D08
S1130EC020D009F468943F912AE0269F1124301918
S1130ED0305D3193DEF6CF010895462F4770405DB3
S1130EE04193B3E00FD0C9F7F6CF462F4F70405D62
S1130EF04A3318F0495D31FD4052419302D0A9F7BD
S1130F00EACFB4E0A6959795879577956795BA95B6
S1130F10C9F700976105710508959B01AC010A2E7C
S1130F2006945795479537952795BA95C9F7620F53
S1130F30731F841F951FA01D08952F923F924F92F7
S1130F405F926F927F928F929F92AF92BF92CF9255
S1130F50DF92EF92FF920F931F93CF93DF93CDB75E
S1130F60DEB7CA1BDB0B0FB6F894DEBF0FBECDBFD6
S1130F7009942A88398848885F846E847D848C84A7
S1130F809B84AA84B984C884DF80EE80FD800C81B0
S1130F901B81AA81B981CE0FD11D0FB6F894DEBF93
S10F0FA00FBECDBFED010895F894FFCF03
S1130FAC5555555555666666666600000001000089
S1130FBC00000000CA020000000000020000000053
S1130FCCB802000000004D6573736167652073659A
S1130FDC6E743A2025730A006661696C656400536B
S1130FEC746172747570207375636365737366755D
S1130FFC6C0A0A206E524632344C30312B20636F0B
S113100C6E666967757265642061733A002D2D2DC7
S113101C2D2D2D2D2D2D2D2D2D2D2D2D2D2D2D2DF0
S113102C2D2D2D2D2D2D2D2D2D2D2D2D2D2D2D2DE0
S113103C2D2D2D2D2D2D2D2D00434F4E4649470979
S113104C093078253032580A00454E5F4141090970
S113105C093078253032580A00454E5F52584144C5
S113106C445209093078253032580A0053455455F6
S113107C505F5245545209093078253032580A00D1
S113108C52465F43480909093078253032580A0022
S113109C52465F534554555009093078253032581F
S11310AC0A005354415455530909307825303258A9
S11310BC0A004645415455524509093078253032C9
S11310CC580A002D2D2D2D2D2D2D2D2D2D2D2D2D65
S11310DC2D2D2D2D2D2D2D2D2D2D2D2D2D2D2D2D30
S11310EC2D2D2D2D2D2D2D2D2D2D2D2D2D2D0A0070
S11310FC68656C6C6F206920616D20636F64790086
S113110C2533640D0A005265636569766564206D48
S113111C6573736167653A2025730A004D657373B3
S113112C6167652073656E7420737563636573738F
S109113C66756C6C79007D
S9030000FC
