S00F00004D69647465726D2E7372656343
S11300000C9434000C9449000C9449000C9449005D
S11300100C9449000C9449000C9449000C94490038
S11300200C9449000C9449000C9449000C94490028
S11300300C9449000C9449000C9449000C94490018
S11300400C9449000C9449000C9449000C94490008
S11300500C9449000C9449000C9449000C944900F8
S11300600C9449000C94490011241FBECFEFD8E032
S1130070DEBFCDBF11E0A0E0B1E0EAE3F3E002C0EF
S113008005900D92AE3AB107D9F70E948F000C94F7
S11300909B010C9400001092C50083E38093C4007C
S11300A088E18093C100E2ECF0E080818660808387
S11300B00895E0ECF0E0908195FFFDCF8093C600B9
S11300C00895CF93DF93EC018881882331F0219642
S11300D00E94590089918111FBCFDF91CF9108953E
S11300E0ECE7F0E0808180648083EAE7F0E08081DF
S11300F0876880830895ECE7F0E09081907F8F70AB
S1130100892B8083EAE7F0E08081806480838081AA
S113011086FDFDCF809178009091790008950E942A
S11301204B000E9470002FEF34E34CE0215030402C
S11301304040E1F700C0000080E091E00E946100CF
S11301408FEF99E628E1815090402040E1F700C00C
S1130150000082E191E00E9461003FEF49E688E1FE
S1130160315040408040E1F700C0000080E291E05F
S11301700E9461009FEF23E234EF91502040304011
S1130180E1F700C000000F2EF4E6FF2EF02D0DEC79
S113019080E00E947B009C01220F331F220F331F3B
S11301A0ADECBCEC0E948C0196958795969587954D
S11301B096958795AC014E5F5F4F4436510530F1FB
S11301C09A013695279536952795ABE7B4E10E94B9
S11301D08C0196958795182FF89E9001F99E300D05
S11301E01124421B530B409FD12D1124CD2FC695B2
S11301F0C695C695CC0F9C2F990F990FC90F842FC4
S11302008C1BC82FD695D695D6951AC09A01ADECFD
S1130210BCEC0E948C01969587959695879596954A
S11302208795D82F9C01220F331F880F991F880FA1
S1130230991F880F991F820F931FC42FC81B10E0AA
S113024087E491E00E9461009FEF29E638E1915034
S113025020403040E1F700C0000080E791E00E94B8
S113026061004FEF84E39CE0415080409040E1F70F
S113027000C0000080E891E00E946100105D812FC1
S11302800E945900D05D8D2F0E945900C05D8C2FB3
S11302900E94590084E491E00E9461002FEF39E646
S11302A048E1215030404040E1F700C0000080E7C1
S11302B091E00E9461008FEF94E32CE08150904024
S11302C02040E1F700C0000080E891E00E94610056
S11302D0812F0E9459008D2F0E9459008C2F0E945B
S11302E0590084E491E00E9461003FEF49E688E10F
S11302F0315040408040E1F700C000008FE090E0C2
S11303002FEF39E648E1215030404040E1F700C08A
S113031000000197A9F73CCFA29FB001B39FC00191
S1130320A39F700D811D1124911DB29F700D811D1D
S10D03301124911D0895F894FFCFE5
S113033A41542B43494F424155443D393630300DDF
S113034A0A0041542B43574D4F44453D310D0A0091
S113035A41542B43574A41503D226D61745F77697A
S113036A6669222C2263726F6174696163726F61B8
S113037A746961220D0A0041542B43495053544174
S113038A52543D22544350222C223138342E3130D7
S113039A372E3135352E313630222C38300D0A00BD
S11303AA41542B43495053454E443D34390D0A00B8
S11303BA474554202F7570646174653F6170695FA5
S11303CA6B65793D44355A31305559314E48545349
S11103DA584D4B5239266669656C64313D00FE
S9030000FC
