S00C0000444134412E737265631E
S11300000C9434000C9446000C9446000C94460066
S11300100C9448000C9446000C9446000C94460042
S11300200C9446000C9446000C9446000C94460034
S11300300C9446000C9446000C9446000C94460024
S11300400C9446000C9446000C9446000C94460014
S11300500C9446000C9446000C9446000C94460004
S11300600C9446000C94460011241FBECFEFD8E038
S1130070DEBFCDBF21E0A0E0B1E001C01D92A430FD
S1130080B207E1F70E949B000C94AE000C940000B0
S11300901F920F920FB60F9211242F938F939F9359
S11300A0EF93FF93319937C0809100019091010142
S11300B0892B51F417BC2FEF83ED90E3215080403E
S11300C09040E1F700C0000080910001909101018F
S11300D00197B9F4EAE7F0E0808184FFFDCF8091D5
S11300E0780090917900909303018093020187BD79
S11300F02FEF83ED90E3215080409040E1F700C062
S11301000000809100019091010121E082279093E9
S1130110010180930001FF91EF919F918F912F91A5
S11301200F900FBE0F901F90189510927C0087EED1
S113013080937A00089580E48AB982E087B998B1FF
S1130140916198B993E094BD95E095BD8093680062
S113015080936C0078940E949500FFCFF894FFCFB1
S9030000FC
