:100000000C9434000C943E000C943E000C943E0082
:100010000C943E000C943E000C943E000C943E0068
:100020000C943E000C943E000C943E000C943E0058
:100030000C943E000C9468000C943E000C943E001E
:100040000C943E000C943E000C943E000C943E0038
:100050000C943E000C943E000C943E000C943E0028
:100060000C943E000C943E0011241FBECFEFD8E04C
:10007000DEBFCDBF0E944A000C94A5020C94000084
:1000800088E08093C10086E08093C20087E6809379
:10009000C40008950E94400085E480937C0085E8B8
:1000A00080937A0085E08093810081E19AE79093C4
:1000B00085008093840081E080936F007894FFCF67
:1000C000E0ECF0E0908195FFFDCF8093C6000895AD
:1000D0001F920F920FB60F9211242F933F934F93BD
:1000E0005F936F937F938F939F93AF93BF93CF93C0
:1000F000DF93EF93FF93EAE7F0E0808180648083F1
:10010000808184FFFDCFEAE7F0E080818061808319
:10011000609178008091790070E0782B072E000CB8
:10012000880B990B0E94840120E030E040E85AE3FC
:100130000E94100220E030E44CE955E40E941002D5
:1001400020E030E040E251E40E94DA000E944C01DD
:10015000CB0164E670E00E947D02EC0180E3860F33
:100160000E946000CE016AE070E00E947D02C82F0C
:1001700080E3860F0E94600080E38C0F0E94600085
:100180008DE00E9460001092850010928400FF9123
:10019000EF91DF91CF91BF91AF919F918F917F911F
:1001A0006F915F914F913F912F910F900FBE0F90E4
:1001B0001F9018950E94EE000C94D6010E94CF016A
:1001C00058F00E94C80140F029F45F3F29F00C94D8
:1001D000BF0151110C940A020C94C5010E94E70161
:1001E00068F39923B1F3552391F3951B550BBB2766
:1001F000AA2762177307840738F09F5F5F4F220FAB
:10020000331F441FAA1FA9F335D00E2E3AF0E0E8A1
:1002100032D091505040E695001CCAF72BD0FE2FEB
:1002200029D0660F771F881FBB1F2617370748077F
:10023000AB07B0E809F0BB0B802DBF01FF27935837
:100240005F4F3AF09E3F510578F00C94BF010C943B
:100250000A025F3FE4F3983ED4F38695779567955D
:10026000B795F7959F5FC9F7880F911D969587956C
:1002700097F90895E1E0660F771F881FBB1F62178B
:1002800073078407BA0720F0621B730B840BBA0B49
:10029000EE1F88F7E09508950E9453016894B1110C
:1002A0000C940A0208950E94EF0188F09F5798F07D
:1002B000B92F9927B751B0F0E1F0660F771F881F6B
:1002C000991F1AF0BA95C9F714C0B13091F00E9485
:1002D0000902B1E008950C940902672F782F88274E
:1002E000B85F39F0B93FCCF3869577956795B395AC
:1002F000D9F73EF490958095709561957F4F8F4F1B
:100300009F4F0895E89409C097FB3EF4909580951F
:10031000709561957F4F8F4F9F4F9923A9F0F92FCB
:1003200096E9BB279395F695879577956795B79549
:10033000F111F8CFFAF4BB0F11F460FF1BC06F5F2F
:100340007F4F8F4F9F4F16C0882311F096E911C041
:10035000772321F09EE8872F762F05C0662371F062
:1003600096E8862F70E060E02AF09A95660F771F76
:10037000881FDAF7880F9695879597F9089597F96A
:100380009F6780E870E060E008959FEF80EC08953B
:1003900000240A9416161706180609060895002464
:1003A0000A9412161306140605060895092E0394DE
:1003B000000C11F4882352F0BB0F40F4BF2B11F452
:1003C00060FF04C06F5F7F4F8F4F9F4F089557FDB1
:1003D0009058440F551F59F05F3F71F04795880FB3
:1003E00097FB991F61F09F3F79F08795089512164A
:1003F00013061406551FF2CF4695F1DF08C01616F6
:1004000017061806991FF1CF8695710561050894A6
:100410000895E894BB2766277727CB0197F90895BD
:100420000E9423020C94D6010E94C80138F00E9459
:10043000CF0120F0952311F00C94BF010C94C5015D
:1004400011240C940A020E94E70170F3959FC1F3F6
:10045000950F50E0551F629FF001729FBB27F00D72
:10046000B11D639FAA27F00DB11DAA1F649F6627C7
:10047000B00DA11D661F829F2227B00DA11D621F16
:10048000739FB00DA11D621F839FA00D611D221FD0
:10049000749F3327A00D611D231F849F600D211DB4
:1004A000822F762F6A2F11249F5750409AF0F1F037
:1004B00088234AF0EE0FFF1FBB1F661F771F881FA0
:1004C00091505040A9F79E3F510580F00C94BF0118
:1004D0000C940A025F3FE4F3983ED4F38695779537
:1004E0006795B795F795E7959F5FC1F7FE2B880F46
:1004F000911D9695879597F9089597FB072E16F409
:10050000009407D077FD09D00E94910207FC05D026
:100510003EF4909581959F4F0895709561957F4F1A
:100520000895AA1BBB1B51E107C0AA1FBB1FA6173A
:10053000B70710F0A61BB70B881F991F5A95A9F78C
:0E05400080959095BC01CD010895F894FFCFF1
:00000001FF
